:1002FA0000A8C0003F065B4F666D7D077F6F000850
:10030A0040014148BF86DBCFE6EDFD87FFEF00EFF6
:10031A0000C500AF00A00096008E00870081007C17
:10032A00007800740071006D006B0068006500635E
:10033A000061005F005D005B005A005800560055DE
:10034A000054005200510050004E004D004C004B2A
:10035A00004A00490048004700460045004400435F
:10036A000043004200410040003F003F003E003D84
:10037A00003D003C003B003A003A003900390038A1
:10038A0000370037003600360035003400340033B9
:10039A000033003200320031003100300030002FCB
:1003AA00002F002E002E002D002D002C002C002BDB
:1003BA00002B002A002A00290029002900280028E9
:1003CA0000270027002600260026002500250024F5
:1003DA0000240024002300230022002200220021FE
:1003EA000021002000200020001F001F001F001E07
:1003FA00001E001D001D001D001C001C001C001B0F
:10040A00001B001B001A001A001A00190019001814
:10041A00001800180017001700170016001600161B
:10042A000015001500150014001400140013001321
:10043A000013001200120012001100110010001027
:10044A000010000F000F000F000E000E000E000D2E
:10045A00000D000D000C000C000C000B000B000B33
:10046A00000A000A0009000900090008000800083B
:10047A000007000700070006000600050005003611
:10048A00000400030003000300020002000100014F
:10049A00000100000000FFFFFFFFFFFFFFFEFFFE5D
:1004AA00FFFDFFFDFFFCFFFCFFFBFFFBFFFAFFFA6E
:1004BA00FFF9FFF9FFF8FFF8FFF7FFF7FFF6FFF67E
:1004CA00FFF5FFF5FFF4FFF3FFF3FFF2FFF2FFF191
:1004DA00FFF0FFF0FFEFFFEEFFEDFFEDFFECFFEBAC
:1004EA00FFEAFFE9FFE8FFE7FFE6FFE5FFE4FFE3D6
:1004FA00FFE2FFE0FFDFFFDDFFDCFFDAFFD8FFD519
:0A050A00FFD2FFCEFFC9FFC1016957
:100AA800093240002050020021000002280F0702EE
:100AB80049012102220100022E0101023001030135
:100AC8002700012A00012B00012500012C10012D0F
:0E0AD8000001260A024B0000043B0000000053
:06085100E52C24F0F53354
:10085700E537C45401FFE527252C24F42FFFE52AAB
:100867007006EF2408540FFFEFC454F0FFE53A5425
:100877000F4FF53A900000E528F0A3E529F07F0136
:10088700E4FE74322EF8E6F54EE4F54DBE0406E5B7
:100897004D64036049E54E30E01B74012FF582E497
:1008A7003400F583E530F074022FF582E43400F567
:1008B70083E531801974012FF582E43400F583E56F
:1008C7002EF074022FF582E43400F583E52FF00F44
:1008D7000FE54EC313F54E054DE54DB408AE0EBEFC
:1008E70005A074012FF582E43400F583E549F0741F
:1008F700022FF582E43400F583E54AF00F0F7E05F9
:1009070074322EF8E6F54EE4F54DE54E30E01B74F3
:10091700012FF582E43400F583E530F074022FF5FA
:1009270082E43400F583E531801974012FF582E400
:100937003400F583E52EF074022FF582E43400F5D8
:1009470083E52FF00F0FE54EC313F54E054DE54D2B
:10095700B408B70EBE09A974012FF582E43400F577
:1009670083E522F074022FF582E43400F583E52352
:0E097700F00F0F7B017A0079007D8C021604D0
:10131800852A4DAD2D7B0AE52475F00A84F54EE546
:101328002475F00A8485F04FE52C75F00A84FFE5F2
:101338002C75F00A84AEF0E52BC4333354C045272E
:10134800FCE525C454F04CF550854E54854F557531
:10135800560A8F578E58AF4D1216A8AF5002177104
:1006C0007F0512144DBF011A052CE52CD3941E4052
:1006D00003752C1E1208517D147C007FE87E0312E6
:1006E000118F7F0212144DBF011A152CE52CC394F3
:1006F000105003752C101208517D147C007FE87E89
:100700000312118F7F0312144DEF6401703B052516
:10071000E525D394034003E4F525E52514600F1483
:10072000601114601324037012E4F537800D7537DF
:1007300001800875371080037537111208577D1432
:100740007C007FE87E0312118F7F0412144DEF644A
:1007500001704A152BE52BC394005003E4F52BE5FB
:100760002B14600F14601614601D24037021533283
:10077000CF801CE53254CF4410F5328012E532545C
:10078000CF4420F5328008E53254CF4430F53212A0
:1007900008577D147C007FE87E0312118F7F0112C1
:1007A000144DEF6401704A052BE52BD394034003ED
:1007B000752B03E52B14600F14601614601D2403C1
:1007C00070215332CF801CE53254CF4410F5328073
:1007D00012E53254CF4420F5328008E53254CF443C
:1007E00030F5321208577D147C007FE87E03121129
:1007F0008FE4FF12144DEF640170550527E527B40F
:100800000503E4F527E5271460121460191460202D
:100810001460272404702B5332F88026E53254F8F4
:100820004401F532801CE53254F84402F53280125E
:10083000E53254F84403F5328008E53254F84404B4
:10084000F5321208577D147C007FE87E0312118F69
:010850002285
:101368007F011214D7BF0117E52D7005752D018077
:1013780003E4F52D7D147C007FE87E0312118FE4D1
:10138800FF1214D7EF64017026E52A7005752A014B
:101398008003E4F52AE52A70055332F780034332C7
:1013A800081208577D147C007FE87E0312118F22F3
:100D5300E526640A6003020E1BE52D6401600302AD
:100D63000E18E524C394144018E524D3941B5011A2
:100D7300E52A64016003020E18F52A5332F7020EC6
:100D830015E524D3941B4046E52A6015E527B401F5
:100D930010E52CB4190BE525B40306E52B640260BA
:100DA30074752A01433208752701E53254F844016A
:100DB300F532752C19E52C24F0F5337525037537B9
:100DC30011752B02E53254CF4420F5328044E52AD5
:100DD3006015E527B40410E52CB4190BE525B4031D
:100DE30006E52B6402602E752A0143320875270439
:100DF300E53254F84404F532752C17E52C24F0F54C
:100E030033752503753711752B02E53254CF442012
:0B0E1300F532120857E4F526052622F0
:100EC600E54C6432454B7058E54BC313FEE54C13B5
:100ED600FFEF253EFFEE353DFEE4353CFDE4353BB8
:100EE600FCC006C007AE4BAF4CAB07AA06E4F9F848
:100EF600D007D0061202268E4D8F4EE54E25E0FF16
:100F0600E54D33FE74162FF58274033EF5837401A6
:100F160093F524E4F53EF53DF53CF53BF54BF54CF4
:100F2600120003783F7C007D007E007F0A120126B6
:100F3600054CE54C7002054BE544AE437802CEC342
:100F460013CE13D8F9F54E8E4DFFE4FCFDE53E2F8A
:100F5600F53EE53D3EF53DED353CF53CEC353BF5E6
:010F66003B4F
:010F67002267
:03004F00020EC6D8
:03177D000213183C
:03178000020D5304
:031783000206C09B
:03178600021368E3
:10126C0012000E1216E41216887F981215D37F2ED8
:10127C001216FF7BFF7A1779867F041211127BFFFF
:10128C007A00794FE4FF1211127BFF7A17797D7F78
:10129C00021211127BFF7A1779807F031211127BD5
:1012AC00FF7A1779837F071211127D07E4FF12175B
:0912BC004212177712159580FB10
:091739008B88898C88898F8889CE
:100AE60052010686860086860086860086860086F1
:090AF60086008686004100FB0920
:03002B0002176B4E
:06176B0053BCEFD20C326A
:02051400155C74
:10051600200C030206BDC20C9000FAE0B4090040AC
:100526000302069F900531F8282873020578020514
:100536004C02055E02058A02054C02055E0205A113
:1005460002054C02055EAFBDEFFEADBE7C00E42D9C
:10055600FFEC3E9000FC803CAFBDEFFEADBE7C00E4
:10056600E42DFFEC3E9000FEF0A3EFF0751C0102B7
:1005760006A5AFBDEFFEADBE7C00E42DFFEC3E90C0
:1005860001008010AFBDEFFEADBE7C00E42DFFEC98
:100596003E900102F0A3EFF00206A5AFBDEFFEAD5F
:1005A600BE7C00E42DFFEC3E900104F0A3EFF0903A
:1005B6000104E0FEA3E07807CEC313CE13D8F9A852
:1005C6005CF6C394065013A85CE675F003A42406F3
:1005D600F582E43401F583E014F09000FBE014F0BA
:1005E60060030206A57409F0A85CE4F6A85CE6FFC1
:1005F600C3940640030206A5EF75F003A42406F58E
:1006060082E43401F583E0C39480502AE6FF75F056
:1006160003A42407F582E43401F583E0D3948040F3
:1006260040EF75F003A42408F582E43401F58374E1
:1006360001F0F51D802BA85CE6FF75F003A42407E6
:10064600F582E43401F583E0C394805014EF75F02D
:1006560003A42408F582E43401F5837402F0751DC1
:1006660001A85CE6FF75F003A42406F582E43401D4
:10067600F583E0FEEF75F003A42407F582E4340168
:10068600F583EEF0E675F003A42406F582E4340162
:10069600F5837486F0060205F29000FA74FFF09076
:1006A60000FAE0D39408400374FFF09000FAE004E7
:0706B600F090173993F5BC29
:0306BD00055C22B7
:02170F00155C67
:09171100A85CA61DE4F51DE6FF2D
:03171A00055C2249
:02171D00155C59
:09171F00A85CA61CE4F51CE6FF21
:03172800055C223B
:1015D3008F9D75BC88439720D2AD9000D174FFF0E6
:1015E300A37405F0A37414F0A374FFF0A37417F0AD
:1015F300A3740FF0A374FFF0A37417F0A3741DF08A
:0116030022C4
:070003007B017A0079FC2269
:10144D00C3EF64809480403BD3EF64809485503328
:10145D00EFFD3395E0FC90010875F003ED1202E805
:10146D00EC75F003A42583F583E0FE90010875F07B
:10147D0003ED1202E8EC75F003A42583F583E4F087
:05148D00AF06227F0301
:011492002237
:04166000155C155CA4
:1016640012174BA85CA60608A607A85CE6FE08E6C7
:0F167400FF4E600BEF24FFFFEE34FFFE12175402
:05168300055C055C227E
:1016880053B1EF43B21012178CE4F5D975DA49D289
:10169800DE9000CB74FFF0A37416F0A37460F02200
:08118F008E4D8F4E8C4F8D50E8
:1011970012174BEF4E7066AF50AE4F121754C3E5A0
:1011A7004E940AE54D9400404BE47B18FAF9F89009
:1011B70002FA1202CC120226C006C007AE4DAF4E8D
:1011C700AB07AA06E4F9F8D007D006120226AB0748
:1011D700AA06AFF9EFFEADE97C00E42DFFEC3ECFA8
:1011E7002BCF3AAD07FCAF03AE0212003ED2D84375
:0F11F700DA01800612178C53DAFE7F02227F0383
:0112060022C5
:0C002E0012174BEF4E7002FF227F0122E0
:100B9D00E4F580900123E0FFB40800505F900BB1A5
:100BAD00F8282873020BC9020BCF020BD5020BDB01
:100BBD00020BE1020BEB020BF5020BFFC2A3C2A26B
:100BCD008016C2A3C2A2801AC2A3C2A2801EC2A353
:100BDD00C2A28022C2A3D2A2C2A1C2A08020C2A35F
:100BED00D2A2C2A1D2A08016C2A3D2A2D2A1C2A06B
:100BFD00800CC2A3D2A2D2A1D2A08002D2A3C3EFF5
:100C0D00648094885029900123E0FF3395E0FE74B1
:100C1D001A2FF58274013EF583E0FF3395E0FE74E3
:100C2D00FE2FF58274023EF583E493F580801E90CD
:100C3D000123E0FFB408133395E0FE741A2FF582FB
:100C4D0074013EF583E0F5808003E4F58090011991
:100C5D00E0FF900123E004FEF0D3EF6480F8EE6432
:100C6D0080984014E0D36480948850047408F02276
:090C7D00900118E0900123F0221F
:1016E400E4F5937594FF5395F043960F9000B67408
:0B16F400FFF0A3740BF0A3749DF02224
:09174200900118EFF0A3EDF02274
:1016A80090011AEFF0A3EDF0A3EBF0A3E554F0A33B
:1016B800E555F0A3E556F0A3E557F0A3E558F02269
:06177100900122EFF022BE
:100AFF00015B004901259494009494009494004163
:030B0F0001241EA0
:02098500155CFF
:1009870020B206900125E014F020B306900128E07C
:1009970014F020970690012BE014F0900124E01446
:1009A700F06003020AA5741EF0A85CE4F6A85CE6F2
:1009B700FFC3648094834003020AA5EF3395E0FEEA
:1009C70090012575F003EF1202E8EE75F003A425F8
:1009D70083F583E0C39480503990012675F003EFC7
:1009E7001202E8EE75F003A42583F583E0D3948023
:1009F700405AE6FF3395E0FE90012775F003EF12AA
:100A070002E8EE75F003A42583F5837401F0F55B26
:100A1700803AA85CE6FF3395E0FE90012675F00367
:100A2700EF1202E8EE75F003A42583F583E0C39483
:100A370080501990012775F003EF1202E8EE75F068
:100A470003A42583F5837402F0755B01A85CE6FFB8
:100A5700FD3395E0FC90012575F003ED1202E8ECFB
:100A670075F003A42583F583E0FE90012675F00356
:100A7700ED1202E8EC75F003A42583F583EEF0EFA1
:100A87003395E0FE90012575F003EF1202E8EE754D
:0E0A9700F003A42583F5837494F0060209B4DD
:030AA500055C22CB
:02172B00155C4B
:09172D00A85CA65BE4F55BE6FF95
:03173600055C222D
:10000E009000BC74FFF0A37417F0A3742BF0900053
:0D001E00B974FFF0A37409F0A37485F022FB
:1014D700EF600764016003BF0233EFFD3395E0FC63
:1014E70090012775F003ED1202E8EC75F003A425CF
:1014F70083F583E0FE90012775F003ED1202E8EC17
:0F15070075F003A42583F583E4F0AF06227F037C
:0115160022B2
:100B120041008C0A4100B50A4100F90A040E0000A6
:100B220000000116004600F30000FFFF8FFFC10A1C
:100B3200C105C108C101C10B60240091FF000AFF79
:100B4200000AFF000AFF000AFF000AFF000AFF0076
:100B52000AFF000AFF000AFF000AFF000AFF000A5C
:100B6200603600B6FF000AFF000AFF1789FF000A7D
:100B7200FF1789FF000AFF1789FF000AFF000AFF1B
:100B8200000AFF1789FF1789FF1789FF1789FF00DE
:0A0B92000AFF000AFF000AFF000A34
:01000A0022D3
:031789007F0022BC
:10140600438E805389F07BE07A2879017800900238
:10141600FA1202CC121493EFF404F58A7BE07A28D0
:10142600790178009002FA1202CC121493C3E49F59
:10143600FFE49EFE74019DFDE49CFC78081202B850
:071446008F8CD28CD2A92289
:03000B000213B825
:0413B800C0E0C0D001
:1013BC00D5080A75084C300A020516D20AA2037227
:1013CC00045032150AE50A702C850C0AD207300934
:1013DC0017E50D6007150D438F018019538FFEC261
:1013EC00B5D51811C209800D050BE50BD394064039
:0513FC0004D206C2034B
:05140100D0D0D0E03264
:1012C500300B47C20B9002FA1202CC78101202B80A
:1012D5008E1E8F1F90008FE0FEA3E0FFE4FCFD7BD8
:1012E50019FAF9F812019BC006C007AE1EAF1FAB75
:1012F50007AA06E4F9F8D007D0061214937803126A
:1013050002B89000F1EEF0A3EFF09000F1E0FEA33B
:02131500E0FFF7
:0113170022B3
:09174B009000F3E0FEA3E0FF2290
:091754009000F3EEF0A3EFF02287
:10003E009000F7EEF0A3EFF09000F5ECF0A3EDF0EA
:01004E00228F
:03178C00C2B422C2
:03003B00020E1E94
:100E1E00C0E0C083C082C0D075D000C004C005C081
:030E2E0006C007F4
:100E310030DF04C2DF807D30DA04C2DA807630D957
:100E41003DC2D9AFFBEFFEADEB7C00E42DFFEC3EE4
:100E510020000E90008DF0A3EFF075DB11D2008021
:100E610053FE90008DE0FCA3E0FDC3EF9DFFEE9CDF
:100E7100A3F0A3EFF075DB00C200D20B803630D8AF
:100E810033C2D89000F3E07002A3E06022B2B490C4
:100E910000F5E0FEA3E0F5EAEEF5FAA3E0FEA3E03B
:100EA100FF9000F6E02FF09000F5E03EF08005C2E3
:040EB100B453DAFE5E
:100EB500D007D006D005D004D0D0D082D083D0E0E2
:010EC50032FA
:06177700121406D2AF229D
:101087003004047F0180027F002009047E01800272
:101097007E00EE5F6074E517C3950950683002362D
:1010A700750D01E517131313541FAB19AA1AA91BC2
:1010B700F58275830012014CFFE517540704FEEF14
:1010C700A806088002C333D8FC30D70575180380FB
:1010D7002F751801802AAB19AA1AA91B75F002E50A
:1010E70017A4F58285F08312014CF50DE51775F00D
:1010F70002A429F9EA35F0FA90000112014CF5181B
:0A1107000517D20922C204438F101D
:0111110022BB
:100C860090008CE014F0701F740AF0D2059000B545
:100C9600E014F07012740AF0D2089000F9E014F033
:100CA6007005740AF0D2019000B6A3E0FAA3E0F949
:100CB6001202F49000B9A3E0FAA3E0F91202F4904C
:100CC60000C5A3E0FAA3E0F91202F49000D1A3E074
:100CD600FAA3E0F91202F49000E0A3E0FAA3E0F927
:100CE6001202F49000E9A3E0FAA3E0F91202F490EC
:100CF6000091A3E0FAA3E0F91202F49000D7A3E072
:100D0600FAA3E0F91202F4EF600C9000A9A3E0FA4E
:100D1600A3E0F91202F49000DAA3E0FAA3E0F912D4
:100D260002F4EF600C9000ACA3E0FAA3E0F9120223
:100D3600F49000DDA3E0FAA3E0F91202F4EF600CF0
:0D0D46009000AFA3E0FAA3E0F91202F4223E
:100F68009000CBA3E0FAA3E0F91202F49000CEA31C
:100F7800E0FAA3E0F91202F49000BFA3E0FAA3E0BC
:100F8800F91202F4900094A3E0FAA3E0F91202F433
:100F98009000BCA3E0FAA3E0F91202F4EF600C9011
:100FA800009DA3E0FAA3E0F91202F49000C2A3E0C6
:100FB800FAA3E0F91202F4EF600C9000A3A3E0FAA0
:100FC800A3E0F91202F49000D4A3E0FAA3E0F91226
:100FD80002F4EF600C9000A6A3E0FAA3E0F9120275
:100FE800F430060EC2069000B2A3E0FAA3E0F912AC
:030FF80002F422DE
:10151700900097A3E0FAA3E0F91202F49000C8A3A1
:10152700E0FAA3E0F91202F4EF600C9000A0A3E048
:10153700FAA3E0F91202F49000E3A3E0FAA3E0F9BA
:0F1547001202F49000E6A3E0FAA3E0F90202F426
:10163500AF11AE10AD0FAC0E9000EC1202DC9000B5
:10164500F0E516F0E4F511F510F50FF50EF5169029
:0B165500009AA3E0FAA3E0F90202F4FF
:10159500300705C207121087300A05C20A120C86E9
:1015A500300505C205120F68300805C20812151767
:1015B500300105C201121635E5112401F511E43596
:0E15C50010F510E4350FF50FE4350EF50E228B
:101112008B4D8A4E894FEFB40C005070901125F818
:1011220028287302114902114E021153021158026A
:10113200115D02116202116702116C02117102113A
:101142007602117B0211809000918035900094808C
:1011520030900097802B90009A802690009D8021ED
:101162009000A3801C9000A080179000A68012908F
:1011720000A9800D9000AC80089000AF8003900021
:0D118200B2E54DF0A3E54EF0A3E54FF022DD
:07175D007B017A0079EC2208
:1016FF0053B1DF43B220C2B5C2098F0C438F102202
:030053000212078F
:10120700C0E0C083C082C0D075D000C000C001C09C
:0312170002C0030F
:10121A00200313D203755A08751500755900E50C99
:10122A00C313F50A8028E55925E0F559E50BC3945F
:10123A000340020559D55A16755A08AB12AA13A9C2
:10124A0014851582758300E5591201790515750B08
:01125A000093
:10125B00D003D002D001D000D0D0D082D083D0E048
:01126B003250
:071764008B128A1389142285
:03178F00AF152271
:101604002003047F0180027F002009047E01800200
:101614007E00EE5F60188B198A1A891BEDC313F5DF
:1016240009C202E4F517538FEFD2047F02227F032D
:011634002293
:101556002003047F0180027F002009047E018002AF
:101566007E00EE5F6026538FEF750D10751808D25A
:1015760009438F018B198A1A891BED75F008A4049B
:0F158600F509D202E4F517D2047F02227F032277
:1016C8002003047F0180027F002009047E0180023C
:0C16D8007E00EE5F60037F00227F012295
:03000000020FFBF1
:0C0FFB00787FE4F6D8FD75815C0210429E
:10005600E709F608DFFA8046E709F208DFFA803E8C
:1000660088828C83E709F0A3DFFA8032E309F60879
:10007600DFFA8078E309F208DFFA807088828C83E1
:10008600E309F0A3DFFA806489828A83E0A3F60895
:10009600DFFA805889828A83E0A3F208DFFA804C6F
:1000A60080D280FA80C680D4806980F28033801046
:1000B60080A680EA809A80A880DA80E280CA8033AF
:1000C60089828A83ECFAE493A3C8C582C8CCC58327
:1000D600CCF0A3C8C582C8CCC583CCDFE9DEE780F7
:1000E6000D89828A83E493A3F608DFF9ECFAA9F076
:1000F600EDFB2289828A83ECFAE0A3C8C582C8CCCC
:10010600C583CCF0A3C8C582C8CCC583CCDFEADEE4
:10011600E880DB89828A83E493A3F208DFF980CC46
:1001260088F0EF60010E4E60C388F0ED2402B4043F
:100136000050B9F582EB2402B4040050AF232345E6
:0601460082239000A67365
:10014C00BB010CE58229F582E5833AF583E0225068
:10015C0006E92582F8E622BBFE06E92582F8E222B2
:0D016C00E58229F582E5833AF583E49322CC
:10017900F8BB010DE58229F582E5833AF583E8F0BC
:10018900225006E92582C8F622BBFE05E92582C868
:02019900F22250
:10019B00E88FF0A4CC8BF0A42CFCE98EF0A42CFC03
:1001AB008AF0EDA42CFCEA8EF0A4CDA8F08BF0A481
:1001BB002DCC3825F0FDE98FF0A42CCD35F0FCEBE0
:1001CB008EF0A4FEA9F0EB8FF0A4CFC5F02ECD39A5
:0F01DB00FEE43CFCEAA42DCE35F0FDE43CFC2212
:1001EA0075F008758200EF2FFFEE33FECD33CDCCCC
:1001FA0033CCC58233C5829BED9AEC99E58298404F
:10020A000CF582EE9BFEED9AFDEC99FC0FD5F0D62B
:10021A00E4CEFBE4CDFAE4CCF9A88222B800C1B955
:10022A000059BA002DEC8BF084CFCECDFCE5F0CB93
:10023A00F97818EF2FFFEE33FEED33FDEC33FCEBCC
:10024A0033FB10D703994004EB99FB0FD8E5E4F987
:10025A00FA227818EF2FFFEE33FEED33FDEC33FC74
:10026A00C933C910D7059BE99A4007EC9BFCE99A68
:10027A00F90FD8E0E4C9FAE4CCFB2275F010EF2FAD
:10028A00FFEE33FEED33FDCC33CCC833C810D707AD
:10029A009BEC9AE899400AED9BFDEC9AFCE899F8E8
:0E02AA000FD5F0DAE4CDFBE4CCFAE4C8F9227B
:10149300C2D5E830E70FB2D5E4C39BFBE49AFAE484
:1014A30099F9E498F8EC30E717B2D51214C912028F
:1014B30026E4C39BFBE49AFAE499F9E498F88003E1
:1014C30012022630D50DE4C39FFFE49EFEE49DFD8A
:0414D300E49CFC2277
:1002B800E86010ECA2E713FCED13FDEE13FEEF135C
:0402C800FFD8F02249
:1002CC00E493FC740193FD740293FE740393FF2278
:0C02DC00ECF0A3EDF0A3EEF0A3EFF02295
:0C02E800A42582F582E5F03583F5832221
:0602F4008A838982E47395
:1010070002126CE493A3F8E493A34003F68001F281
:1010170008DFF48029E493A3F85407240CC8C333EA
:10102700C4540F4420C8834004F456800146F6DFB9
:10103700E4800B0102040810204080900AA8E47E97
:10104700019360BCA3FF543F30E509541FFEE493AE
:10105700A360010ECF54C025E060A840B8E493A375
:10106700FAE493A3F8E493A3C8C582C8CAC583CAA0
:10107700F0A3C8C582C8CAC583CADFE9DEE780BE58
:010B9C000058
:00000001FF
